:020000040800F2
:10000000B80C00203D020008DF240008D7240008B7
:10001000DB24000899220008192D000800000000C8
:100020000000000000000000000000000B28000895
:10003000C522000800000000B92500088529000835
:10004000570200085702000857020008570200082C
:100050005702000857020008C7220008F1220008D2
:10006000570200085702000857020008570200080C
:1000700057020008570200085702000857020008FC
:1000800057020008570200085702000857020008EC
:1000900057020008570200085702000857020008DC
:1000A00057020008570200085702000857020008CC
:1000B00057020008570200085702000857020008BC
:1000C00057020008570200085702000857020008AC
:1000D00057020008F12900082D2A000857020008DD
:1000E000570200085702000857020008570200088C
:1000F0005702000800F002F800F090F80AA090E81B
:10010000000C82448344AAF10107DA4501D100F0D2
:1001100085F8AFF2090EBAE80F0013F0010F18BF0F
:10012000FB1A43F001031847A8440000C84400002C
:10013000103A24BF78C878C1FAD8520724BF30C813
:1001400030C144BF04680C607047000000230024E5
:1001500000250026103A28BF78C1FBD8520728BFD7
:1001600030C148BF0B6070476E2900F01B837029B7
:1001700000F07F81662904F07B81652904F0788195
:10018000672904F07581612904F0748103681B0AF2
:1001900028BF41F08001692900F0F080642900F057
:1001A000ED80752900F0EA806F2900F0128478292B
:1001B00000F04B81E92900F0AD83E42900F0AA8327
:1001C000F52900F0A783EF2900F00F84F82900F04B
:1001D0004A810368DB0928BF41F08001632900F0F0
:1001E0001C83732900F02183E32900F0E587F329BC
:1001F00000F0EA87002070471FB501F03BF80400CB
:100200000020002104F01EF9401C60600020002145
:1002100004F002F9E0601FBD10B510BD00F0FCFF56
:100220001146FFF7E9FF03F0D1FB01F0D9F803B461
:10023000FFF7F2FF03BC02F08CFD00000948804785
:1002400009480047FEE7FEE7FEE7FEE7FEE7FEE7B8
:10025000FEE7FEE7FEE7FEE704480549054A064BD0
:100260007047000089290008F5000008B806002042
:10027000B80C0020B8080020B80800207047000023
:100280000FB4044910B503AA029800F0D3FA10BCC9
:100290005DF814FB380000200FB4044910B503AA20
:1002A000029800F0C7FA10BC5DF814FB380000207B
:1002B0000FB41CB5084B06AA7B446946009005980C
:1002C00000F089FA04460020694600F097FA2046BB
:1002D0001CBC5DF814FB00004105000070B504462D
:1002E00085690068C10601D5302600E02026C007D8
:1002F00007D070BDD4E9012130469047206A401CE8
:1003000020626D1EF6D570BD70B504468569007813
:10031000C00707D170BDD4E9012120209047206A91
:10032000401C20626D1EF6D570BD70B50C460546AA
:10033000012A05D02878800600D5EA69002302E06A
:10034000012305E05B1C934202D2E05C0028F9D156
:10035000A869E618C01AA861286A184428622846C5
:10036000FFF7BCFF04E0D5E9012114F8010B904729
:10037000B442F8D32846FFF7C7FF70BD2DE9F0411E
:100380000646002410687529314616A510D000F0E5
:100390009EF9002802DA404213A507E031688A0777
:1003A00001D512A502E0490704D511A5012401E0F9
:1003B00000F096F900210A2206F1240709E0B0FBBB
:1003C000F2FCB0FBF2F302FB1C003030785418460C
:1003D000491C0028F3D123462A463046BDE8F041A7
:1003E00000F087B9000000002D0000002B00000085
:1003F00020000000F0B40D460188090502D5214C0B
:100400007C4402E01F4C7C440E34002100F12406A1
:1004100008E002F00F071209E75D42EA03721B09C8
:100420007754491C52EA0307F3D1027800231207DC
:1004300004D5702D06D009B1022311342246F0BC38
:1004400000F057B901231034F8E770B504460D46A3
:100450002146106800F044F9024629462046BDE8CE
:1004600070400023C6E7D21D22F00703D3E9002322
:10047000C0E70368126843F0200303600823C361E8
:100480000023B7E7744000002DE9F05F8946044679
:100490004FF0000ADFF874B1FB44C0F820A02046FA
:1004A000E1688847002874D0252806D0D4E90121C6
:1004B0009047206A401C2062F1E700265F462046F4
:1004C000E16888472028054607DB312D05D27819D9
:1004D00010F8200C08B10643F1E7B00701D526F06B
:1004E0000406C4F81CA00027C4F818A02A2D09D0BF
:1004F000284602F027FC38B304EB8708303DC8F8E3
:10050000185019E059F8041B204604EB870291614A
:10051000E1688847012F054618D1E069002820DAF4
:1005200026F020061DE0D8F8180000EB800005EB4F
:1005300040003038C8F818002046E1688847054672
:1005400002F000FC0028EED1012F0AD02E2D08D198
:100550002046E16888477F1C0546022F46F02006AA
:10056000C4DBA069002803DA404246F00106A0611E
:10057000F00701D026F010066C2D0BD0682D09D0A5
:100580004C2D39D06A2D35D0742D35D07A2D33D0FD
:1005900016E038E0E1682F4620468847B842054615
:1005A00009D16C2F26D04FF48060E16806432046C5
:1005B0008847054604E06C2F1AD04FF4807006433C
:1005C0000DB3A5F14100192802D8203546F4006684
:1005D0004A462946204626604E46FFF7C5FD80B1B3
:1005E00001280BD0F61D26F0070000F1080956E798
:1005F0004020E4E78020D8E70020D6E706F1040990
:100600004DE7284652E7206ABDE8F09F044000000D
:1006100030B505460B462A4613F8014B12F8010B7C
:1006200008B1A042F8D01CB1002802D06D1CF1E73F
:10063000284630BD4FF000020429C0F0128010F0AF
:10064000030C00F01B80CCF1040CBCF1020F18BFAE
:1006500000F8012BA8BF20F8022BA1EB0C0100F041
:100660000DB85FEAC17C24BF00F8012B00F8012B14
:1006700048BF00F8012B70474FF0000200B5134649
:1006800094469646203922BFA0E80C50A0E80C50B2
:10069000B1F12001BFF4F7AF090728BFA0E80C5063
:1006A00048BF0CC05DF804EB890028BF40F8042B5C
:1006B00008BF704748BF20F8022B11F0804F18BFC9
:1006C00000F8012B70477047704770477047096802
:1006D0004A0501D540B27047C905FCD500B2704744
:1006E00009684A0501D5C0B27047C905FCD580B27A
:1006F00070472DE9F0470D4699469246044600F1B1
:1007000024080168880604D5E06921F01001216001
:1007100000E00120A84201DD471B00E00027A1699D
:100720007A1902EB0900081AA0612078C00602D4E9
:100730002046FFF7D3FD002608E0D4E901211AF88E
:1007400006009047206A401C761C20624E45F4DB70
:100750002078C0060AD52046FFF7C0FD06E0D4E9A0
:10076000012130209047206A401C2062381EA7F1EA
:100770000107F4DC07E0D4E9012118F805009047EF
:10078000206A401C2062281EA5F10105F3DC2046EA
:10079000FFF7BAFD2078000602D50220BDE8F087F9
:1007A0000120FBE711680268006A530501D5087053
:1007B0000AE0D30501D5088006E0130603D5C21769
:1007C000C1E9000200E008600120704701694A1C8D
:1007D00002610878704700B58FB0CDE90131002182
:1007E000059105497944CDE9031011466846FFF7A4
:1007F0004BFE0FB000BD0000E5FFFFFF0A6802F8E6
:10080000010B0A60704710B5436913B1AFF3008064
:1008100001E0FFF78AFD012010BD127800F12401EC
:100820000A7000224A700122EDE711684FF0FF3292
:10083000E9E70000074B70B50D467B44FFF7CBFF9F
:100840000446284600F0C4FC10B14FF0FF3070BDE4
:10085000204670BDA72800002DE9FF5F15468A4697
:100860000446DFF8AC80F8440027D8E900103E4683
:10087000CDE9001010E03AF816106A4602A800F020
:10088000ABFC411C07D02178890603D5E2693918F1
:1008900091420DD80744761C2078800602D5E06985
:1008A000B84205DDAE42E6DB3AF816000028E2D198
:1008B000A069C01BA0612046FFF710FDD8E9001019
:1008C000CDE90010002017E03AF818106A4602A897
:1008D00000F082FCB0F1FF3F81460BD000250DF106
:1008E000080B05E0D4E901211BF8050090476D1CB9
:1008F0004D45F7D308F10100B0428046E4DB206AA1
:10090000384420622046FFF7FFFCBDE8FF9F00004F
:100910004A3C00002DE9F0418046D21D22F007023A
:100920000025D2E90002F52915A614D0011E72F1A6
:10093000000106DA0023D0EB030063EB020211A6EC
:1009400008E0D8F800108B0701D50FA602E0490790
:1009500001D50EA601251146002408F1240704E064
:1009600000F04EF830323A55641C50EA0102F7D1DB
:100970002B46324621464046BDE8F041FFF7B9BE5E
:10098000000000002D0000002B00000020000000EF
:1009900030B4002100F1240408E002F00705D20879
:1009A000303542EA4372DB086554491C52EA0305BC
:1009B000F3D10468002310A2250707D5A40600D4AC
:1009C00021B1C46901230DA2641EC46130BCFFF7CC
:1009D00090BE10B5044621461068FFF781FE02461E
:1009E0002046BDE810400023D2E7D21D22F00701C7
:1009F000D1E90023CCE70000000000003000000037
:100A000030B5B0F10A024FEA900E71F100034EEAE0
:100A1000817EB0EB0E0061EB91014FEA101E4EEAB1
:100A2000017E10EB0E0041EB11114FEA102E4EEA41
:100A3000016E10EB0E0041EB11214FEA104E4EEA11
:100A4000014E10EB0E0041EB1141401841F1000145
:100A50004FEAD00040EA41704FEAD10110EB800527
:100A60004FEA810444EA907444EB01046D1944EBAD
:100A70000404521BA3414FF0000348BF0A3200D5C3
:100A800030BD401C41F1000130BD70472DE9FF4FE2
:100A90000C461E464FF0FF378BB0D2E90001DDF85F
:100AA00060800A908A46C1F30A5505B93D46002187
:100AB00008464FF00000BAF1000F00F4400005DADC
:100AC00000EB80004FF4400101EA50004FEA9059DA
:100AD000B9F1010F00DDB9460A9850EA4A000ED07C
:100AE00044F61050A5F2FF3545432F14B8F1000F1E
:100AF0001ED07542291E1EDDC9F100021CE0B8F1AE
:100B0000010F4FF0000001D0302103E0F24305E077
:100B10002154401CB042FBDB30460022002121540E
:100B20000B99C1F80880C1E900200FB0BDE8F08F33
:100B3000BD1B6D1CDEE74A4600DA694206A800F0DC
:100B4000DDFB06AB93E8070003AB83E807005046E4
:100B50000A9900F093FC8DE80700A0F500501F38BB
:100B600000900398002D0ADD42F21F014A46084416
:100B7000002303A90390684600F0FCFE09E0A0F5FD
:100B800000504A461F38002303A90390684600F02E
:100B900006FF8DE807000004000C03D04FF0FF3083
:100BA000410800E01046B8F1000F03D00022009287
:100BB00015461EE0751E05D4FFF722FF3032625540
:100BC0006D1EF9D5B3460122084302D000227F1CD6
:100BD00004E02078302801D100227F1E002A0997E6
:100BE00084D01DE0112D07DAFFF70AFF303262557D
:100BF0006D1C50EA0102F5D1084302D00098C8B13B
:100C00000EE00021681E05E0235C625C6354225400
:100C1000401E491C8142F7DBAB46A81B401E0990D1
:100C2000002004F80B000B98099AC0F80880C0E96E
:100C3000002B7AE711264FF0000857E72DE9F04F17
:100C400088460446D21D22F0070191B0D1E9000187
:100C5000CDE90A0102F062F802460B98C00F01D0FC
:100C60002D2007E02068810701D52B2002E02021FC
:100C700001EAC000032A099001D0072A05DB0346D8
:100C80004146204600F0FAFA0BE12078800601D5B3
:100C9000E06900E00620B8F1650F814606D0B8F1A2
:100CA000660F18D0B8F1670F70D131E00020B9F1AC
:100CB000110F009001DB112301E009F101030AAAE1
:100CC00001A90CA8FFF7E2FEDDE90C70002609F18E
:100CD0000105834647E001204B4600904FF0004756
:100CE0000AAA01A90CA8FFF7D1FEDDE90DB00C9905
:100CF0005D46002610B909F101000D18B9EB050099
:100D000003D4C0F1FF3609F10105A5EB09002BE082
:100D1000B9F1010F01DA4FF001090020B9F1110F0B
:100D20000090484601DD112300E003460AAA01A90C
:100D30000CA8FFF7ABFEDDE90C704D46002683469C
:100D4000207800070AD4AB4500DA5D4601A8012DE2
:100D500004DD411911F8011C302907D04F4502DA92
:100D600017F1040F04DA012082460FE06D1EEEE752
:100D7000002F02DCED1B3E4403E0781CA84200DD9E
:100D80007D1CB81B00F1010A4FF0004720780007D6
:100D900003D4AA4501DB4FF0FF3A0021B7F1004F21
:100DA0000DF143088DF8431024D002202B23002F8F
:100DB00001DA7F422D230A21021EA0F1010000DC8E
:100DC0005FB197FBF1FC97FBF1F201FB1C7C17462E
:100DD0000CF1300C08F801CDEEE7A8F1010003702A
:100DE0002188090501D5452100E06521A0F1010810
:100DF00000F8011C09980FA9A1EB0807FF1D00B11D
:100E00000120411901EBEA70A1693844081A401E1B
:100E1000A0612078C00602D42046FFF75FFA099847
:100E200028B1D4E901219047206A401C2062207833
:100E3000C00622D52046FFF751FA1EE0002E04DB43
:100E4000B34502DD01A8805D00E03020D4E9012136
:100E50009047206A401C2062761CAAF101005FEADC
:100E6000000A0AD100F006FAC0680168405CD4E9C3
:100E700001219047206A401C2062281EA5F101052F
:100E8000DCDC07E0D4E9012118F8010B9047206A67
:100E9000401C2062381EA7F10107F3DC2046FFF753
:100EA00033FA032011B041E62DE9F04F04460D4618
:100EB000D21D22F0070089B0D0E900974846394694
:100EC00001F02CFF0246F80F01D02D2307E0206827
:100ED000810701D52B2302E0202101EAC0038DF810
:100EE00020300BB1012000E00020032A824601D00F
:100EF000072A04DB2946204600F0C0F93FE12078AC
:100F0000800601D40D2500E0E569C7F30A560D2DD2
:100F100049DA00214FEA175B08464FF00000002F26
:100F200000F4400007DA00EB80004FF4400100EBD2
:100F3000D07001EA60008115012901DD4FF0FF3119
:100F400000224FEA850CBCF1180F06D31346ACF112
:100F500018004FF08052C24003E04FF4801323FA90
:100F60000CF30CF10C0CBCF1200F04D3ACF1200CF1
:100F700009FA0CF001E007FA0CF000294FF00048E4
:100F800001DD18B90FE00ED140450CD319EB020971
:100F90005F4121B9404502D19F4329EA0209BBEBD9
:100FA000175F00D0761C2088000502D57B48784466
:100FB00002E07A487844193808AA302302F80A3047
:100FC000037C0AF10101002E0AF1020A53546A4619
:100FD00002DC4FF0300101E04FF031014FF0010829
:100FE0008DF8001002D0A6F2FF3603E059EA47015F
:100FF00000D06B4E002D02DC2178090704D54FF09C
:1010000002082E218DF80110C44600210BE0C7F321
:1010100003433F01C35C491C6D1E02F808300529DB
:1010200008F1010801DA002DF1DC00210CE000EBF1
:101030001973491C1B786D1E082902F808304FEA05
:10104000091908F1010801DA002DF0DC21688B068E
:1010500002D516E0A8F10108E04505DD02EB080322
:1010600013F8013C302BF5D0B8F1000F09DD02EB8D
:10107000080313F8013C2E2B03D1090701D4A8F172
:101080000108002D05DD3E2102F808106D1E08F153
:101090000108407C002E02F8080008F1010804DA7B
:1010A0002D20764202F8080002E02B2002F808000A
:1010B0000A214FF47A70864208F101080BDB96FB97
:1010C000F0F3303302F8083096FBF0F308F1010832
:1010D00000FB136601E0642E0CDB642096FBF0F34A
:1010E000303302F8083096FBF0F308F1010800FBFA
:1010F000136601E00A2E06DB96FBF1F0303002F8B1
:10110000080008F1010896FBF1F001FB1060303097
:1011100002F80800A16908F1010808EB050202EBDA
:101120000A00081AA0612078C00602D42046FFF702
:10113000D5F8216A08AE01EB0A00206204E0D4E988
:10114000012116F8010B9047BAF1010AF7D2207875
:10115000C00602D52046FFF7C1F86E4609E016F832
:10116000010B3E280FD0D4E901219047206A401C92
:101170002062B8F10108F2D22046FFF7C5F809B0A5
:101180000320BDE8F08F206A2844206203E0D4E900
:101190000121302090476D1EEBD3F8E71D3500008C
:1011A00002FCFFFF10B5436913B1AFF3008001E00B
:1011B000FFF752FB012010BD128800F12401828448
:1011C0000022C2840122EDE711684FF0FF32E9E707
:1011D000007B00F08000704770B516460C4605464F
:1011E00000F040F8036893F80101012806D0FF2CB5
:1011F0000FD8185D68B101202C7070BDD3F80701BD
:101200003246214603F2071303442846BDE87040E6
:1012100018474FF0FF3070BD754600F0EBF8AE4652
:1012200005006946534620F00700854618B020B5F2
:10123000FFF712F8BDE820404FF000064FF000071E
:101240004FF000084FF0000B21F00701AC46ACE86E
:10125000C009ACE8C009ACE8C009ACE8C0098D46DB
:101260007047000010B500F005F8001D10BD00BF6C
:10127000D531000000487047780600202DE9F04184
:101280001F46044603260168072A01F4006004DBB8
:1012900008B116A505E016A503E008B115A500E004
:1012A00015A521F010002060A069C01EA0610FB13B
:1012B000401EA0612046FFF711F84FB1D4E901218B
:1012C00038469047206A401C2062C01C206206E01D
:1012D000206AFAE7D4E9012115F8010B9047761E40
:1012E000F8D22046FFF710F8BDE8F0814E414E00DD
:1012F0006E616E00494E4600696E66002DE9F0474A
:10130000814616468AB0354878440DC88DE80D00F0
:1013100032487844801C03AC0DC884E80D0041F6C7
:101320009B300844372190FBF1F290FBF1F5A5F1D9
:10133000800501FB12041B3C02D56442012000E041
:101340000020DFF898A080460027FA44AAF1BE0AE0
:101350000EE0E0070AD03246684607EB470101235A
:101360000AEB810100F01BFB8DE8070064107F1C75
:10137000002CEED1194F7F44AE3F19E0E80715D09D
:1013800007EB04100DF1180A90E80E008AE80E0031
:10139000C068F04201D1981908903246012306A98D
:1013A00003A800F0FCFA03AB83E807006D10641C8F
:1013B000002DE3D14FF0010332466946B8F1000F2A
:1013C00003A802D000F0D6FA01E000F0E8FAC9E97B
:1013D0000001C9F808200AB0BDE8F08754320000C7
:1013E00010B50446AFF300802046BDE81040FEF77C
:1013F0001EBF000000487047580600204FF0013C17
:1014000050F8042B51F8043B9A4221D1A2EB0C0373
:10141000934313EACC1317D150F8042B51F8043B33
:101420009A4215D1A2EB0C03934313EACC130BD1D0
:1014300050F8042B51F8043B9A4209D1A2EB0C035B
:10144000934313EACC13DBD04FF00000704700BF8A
:10145000D01A01BAB1FA81F101F0180122FA01F0B3
:10146000CB40C1F12001DBB2C0B2C01A2CFA01F3AB
:10147000D11A914311EAC311E6D170475FEA400CDB
:1014800008BF91F0000F4FEA8C234FEAC12243EAD4
:1014900051514FEA1C5018BF00F5F0404FEA3000A0
:1014A00018BF41F000415FEA6C5C00F02980BCF19C
:1014B000FF3F08BF40F080407047130C06BF120486
:1014C0004FF0100C4FF0000C130E04BF12020CF181
:1014D000080C130F04BF12010CF1040C930F04BF8E
:1014E00092000CF1020CD30F04BF52000CF1010C5E
:1014F00011464FF00002A0F11F00A0EB0C00704756
:1015000011F0004F08BF704731F000413FF4D5AFF4
:101510000B0C06BF09044FF0100C4FF0000C0B0E23
:1015200004BF09020CF1080C0B0F04BF09010CF1F8
:10153000040C8B0F04BF89000CF1020CCB0F04BF0D
:1015400049000CF1010CCCF12003A0EB0C0022FAB5
:1015500003F302FA0CF241EA030100F101007047C3
:1015600020F07F4C80EA030023F07F47ACEB0703B9
:1015700003F57C5300F0004003F1FF032DE980499F
:101580004FEA154B09B44FEA144325EA0B4E24EAFF
:1015900003480FF2042606EB132749083E785FEA5A
:1015A000320203FB0667C7F5000707FB06F64FEAA2
:1015B00054374FEAD64606F1020607FB066CCCF11B
:1015C000005C4FEA1C472CEA074C07FB06F40CFBB7
:1015D00006F504EB15464FEA961634BF00204FF08F
:1015E00000404FEAD13706FB07FC4FEA1C4C0CFBCE
:1015F0000BF7D21B03FB0CF761EB07010CFB0EF79B
:10160000B0EB074072EB17420CFB08F734BFA2EBBC
:101610000742B2EB074261EB17414FEA0C444FEA35
:10162000910706FB07FC4FEA1C4C0CFB0BF7B0EBD9
:10163000C74072EB573203FB0CF734BFA2EBC74233
:10164000B2EBC74261EB57310CFB0EF7B0EBC700B2
:1016500072EB57720CFB08F734BFA2EBC702B2EB78
:10166000C70261EB5771039F4FEA816141EA921112
:1016700004EBCC044FEAD1374FEA826206FB07FC49
:1016800042EA90124FEA80604FEA1C4C0CFB0BF7C9
:10169000D21B03FB0CF761EB07010CFB0EF7B0EB61
:1016A000074072EB17420CFB08F734BFA2EB07426E
:1016B000B2EB074261EB17414FEA8C554FEA9107B5
:1016C00004EB9C2406FB07FC4FEA1C4C0CFB0BF7BD
:1016D000B0EBC74072EB573203FB0CF734BFA2EB01
:1016E000C742B2EBC74261EB57310CFB0EF7B0EBD0
:1016F000C70072EB57720CFB08F734BFA2EBC702AE
:10170000B2EBC70261EB577115EB4C254FEA8161D3
:1017100041EA92114FEA82624FEAD13742EA9012CF
:1017200006FB07FC44F100044FEA80604FEA1C4CC2
:101730000CFB0BF7D21B03FB0CF761EB07010CFB57
:101740000EF7B0EB074072EB17420CFB08F734BF03
:10175000A2EB0742B2EB074261EB174115EB1C15F8
:101760004FEA813141EA92414FEA823242EA9042A5
:101770004FEA80304FEA0C7644F1000448EA034314
:101780004EEA0B484FF0000EB2EB080C71EB03076A
:1017900024BF624639464EEB0E0E4FF0000B001888
:1017A000524149414BEB0B0BB2EB080C71EB0307B9
:1017B0007BF1000B24BF624639464EEB0E0E4FF014
:1017C000000B0018524149414BEB0B0BB2EB080CDC
:1017D00071EB03077BF1000B24BF624639464EEBE9
:1017E0000E0E51EA020718BF46F0010616EB0E7600
:1017F00055F1000254F1000103D5BDE88901BDE8AF
:101800000088BDE88901BDE80048B619524141EBA6
:101810000101A3F10103704780807F7E7D7C7B7A8C
:101820007978777676757473727171706F6E6E6D8C
:101830006C6C6B6A6A696868676666656464636332
:1018400062616160605F5F5E5E5D5D5C5C5B5B5AB8
:101850005A59595858575756565555555454535325
:1018600052525251515050504F4F4F4E4E4D4D4D80
:101870004C4C4C4B4B4B4A4A4A49494948484847CB
:101880004747474646464545454444444443434309
:101890004342424242414141002B9C4630D47700B2
:1018A0002BD01CB54FEA370703B44FF010004FF0B0
:1018B0001001BAF1000F06D0BCF1000FDCBF40F000
:1018C000080040F008014FF000000FBCBDE81040D8
:1018D0000BF1010BBBF1010F08BF5FEA170722BF35
:1018E00012F1010211F101014FF0004143F1000337
:1018F00000F0004043EA00007047F9D35708D0E7F2
:1019000046EA064613F1400F4FEA16461FDD13F173
:10191000200FDFBF16430A46002120335B42BED0B2
:10192000C3F1200746EA064602FA07F74FEA1646D1
:1019300046EA0706C3F1200722FA03F201FA07F785
:1019400021FA03F14FF0000342EA0702A7E746EA53
:10195000020646EA06464FEA164646EA0106BCBFBC
:1019600046EA0646360C4FF000034FF000024FF0F7
:10197000000194E72DE9804C9A46934670B491E8B3
:10198000380007C831EA400C48BF34EA430C03D59D
:10199000FFF7E6FDFFF780FFF0BCBDE8008C2DE906
:1019A000804C9A46934670B491E8380007C810F00E
:1019B000804F08BF13F0804F03D100F005F8FFF708
:1019C0006BFFF0BCBDE8008C20F07F4780EA03008D
:1019D00023F07F4C07EB0C03A3F57C5300F0004091
:1019E000A3F1FE0392F0000F00F0B38095F0000F1A
:1019F00000F077802DE901494FEA11404FEA144683
:101A000021EA004800FB06FC24EA064708FB06F62C
:101A100007FB08F800FB07F718EB06484CEB164CE1
:101A20004FEA124B18EB07484FEA15464CEB1740AC
:101A300022EA0B4E0BFB06FC25EA06470EFB06F6D8
:101A400007FB0EFE0BFB07F71EEB064E4CEB164C8E
:101A50004FF000061EEB074E4CEB174B18EB0B0834
:101A600040F1000018EB0E0B58EB000840F10000AD
:101A70008F1A4FF000013CBFC943661B14BFB5EB82
:101A8000040C00213CBFC943F61B4FEA17444EEA41
:101A90008E0E27EA04454FEA1C4704FB07622CEA36
:101AA000074C05FB07F70CFB05F604FB0CFC16EBDB
:101AB000074642EB174216EB0C4642EB1C421BEB6F
:101AC000060658EB0202414146EA9E0601D5BDE8F2
:101AD0000189B619524141EB0101A3F10103BDE8AF
:101AE00001894FEA14454FEA114724EA054621EAE5
:101AF000074C05FB07F406FB07F70CFB06F105FB9B
:101B00000CFC11EB074144EB17444FEA124711EB71
:101B10000C4144EB1C4422EA074C05FB07F206FB90
:101B200007F70CFB06F605FB0CFC16EB074642EB31
:101B3000174216EB0C4642EB1C456A1854F10001A3
:101B400048BF7047B619524141EB0101A3F10103AF
:101B5000704795F0000F37D04FEA11424FEA144713
:101B600021EA024624EA074C02FB07F106FB07F7CD
:101B70000CFB06F402FB0CFC14EB074441EB174191
:101B80004FEA154714EB0C4441EB1C4125EA074C86
:101B900002FB07F506FB07F70CFB06F602FB0CFC45
:101BA00016EB074645EB174516EB0C4645EB1C427A
:101BB000121951F1000148BF7047B619524141EB6B
:101BC0000101A3F1010370474FEA14454FEA1147A1
:101BD00024EA054621EA074C05FB07F106FB07F757
:101BE0000CFB06F24FF0000605FB0CFC12EB074263
:101BF00041EB174112EB0C4251EB1C4148BF7047BF
:101C0000921841EB0101A3F10103704738B500249C
:101C100048A001F06DF84BA001F06AF84DA001F06A
:101C200067F84FF4967001F067F900F037FB4DA0AC
:101C300001F05EF84FF4967001F05EF94FA1504844
:101C4000FEF7E6FC4F49086011E0641C45A001F076
:101C50004FF84FF4967001F04FF948A14848FEF74D
:101C6000D7FC484908601E2C01DD002403E04548EC
:101C700000680028E9D000BF43A14148FEF7C8FC36
:101C8000404908600846006810B101203F490860DB
:101C90003FA13B48FEF7BCFC3A4908600846006893
:101CA00010B10220394908603AA13548FEF7B0FC6E
:101CB000344908600846006810B1032033490860C1
:101CC00000F0ECFA4FF480713348FEF7B3FC42F2B7
:101CD0001E7032A300902D4834A102682E48FEF7F2
:101CE000E7FA2D4801F004F84FF4967001F004F97A
:101CF00022A12348FEF78CFC22490860002411E051
:101D0000641C254800F0F4FF4FF4967001F0F4F8DD
:101D10001AA11B48FEF77CFC1A4908601E2C01DD45
:101D2000002403E0174800680028E9D000BF00F055
:101D3000B5FA38BD41542B4E534F434C3D310D0A3B
:101D40000000000041542B4E534F434C3D320D0ACE
:101D50000000000041542B4E534F434C3D330D0ABD
:101D60000000000041542B4E534F43523D535452F8
:101D700045414D2C362C302C310D0A004F4B0000C4
:101D8000D403002054000020310000006000002037
:101D90003200000033000000DC0400203137352E13
:101DA0003137382E38352E313933000041542B4E1F
:101DB000534F434F3D25642C25732C25640D0A0099
:101DC00010B5002400209149086091A0FEF764FA44
:101DD00094A000F08DFF4FF4967001F08DF89348B9
:101DE000FEF74EFA92A0FEF757FA95A18F48FEF73C
:101DF0000FFC9449086000F051FA11E092A0FEF740
:101E00004BFA00F04BFA97A000F072FF4FF4967077
:101E100001F072F88AA18548FEF7FAFB894908604B
:101E2000884800680028E9D090A000F061FF4FF4D6
:101E3000967001F061F882A17C48FEF7E9FB8149C8
:101E4000086000F02BFA8CA000F052FF4FF496705F
:101E500001F052F87AA17548FEF7DAFB794908607B
:101E60000846006848B1714986A0FEF715FA00F0EF
:101E700015FA4FF4967001F03FF88AA000F038FF91
:101E80004FF4967001F038F889A16848FEF7C0FB5E
:101E90006C4908600846006850B9644986A0FEF79E
:101EA000FBF900F0FBF94FF4967001F025F80CE017
:101EB0000120564908605D4984A0FEF7EDF900F065
:101EC000EDF94FF4967001F017F884A000F010FFC0
:101ED0004FF4967001F010F859A15448FEF798FBA2
:101EE0005849086000F0DAF95648006840B100F03F
:101EF000D5F97EA0FEF7D0F94FF4967000F0FCFF04
:101F00007EA000F0F5FE4FF4967000F0F5FF7EA184
:101F10004648FEF77DFB4B49086000F0BFF90024FE
:101F200016E0641C00F0BAF974A000F0E1FE4FF472
:101F3000967000F0E1FF74A13C48FEF769FB41494F
:101F40000860642C04DD012030490860002403E0AF
:101F50003C4800680028E4D000BF6EA000F0C8FE36
:101F60004FF4967000F0C8FF6DA13048FEF750FBAB
:101F7000344908600846006848B12C496AA0FEF759
:101F80008BF900F08BF94FF4967000F0B5FF6AA062
:101F900000F0AEFE4FF4967000F0AEFF69A123484A
:101FA000FEF736FB2749086069A12048FEF730FBA1
:101FB0006A49086000F072F900241CE0641C00F01B
:101FC0006DF95DA000F094FE4FF4967000F094FF60
:101FD0005CA11648FEF71CFB1A4908605CA1134877
:101FE000FEF716FB5D490860642C04DD01200749FB
:101FF0000860002406E01348006818B957480068D4
:102000000028DBD000BF0148006810BD5C00002044
:10201000737461727420696E697420626332380D62
:102020000A000000415445310D0A0000D40300208D
:10203000676574206261636B20626332380D0A0049
:102040004F4B0000540000200D0AB5A5C6ACBBFAEA
:10205000D5FDD4DAC1ACBDD3B5BDC4A3BFE92E2E26
:102060002E0D0A0041540D0A0000000041542B437C
:102070004D45453D310D0A0041542B4E42414E44E1
:102080003F0D0A003D3D3D3D3D3D3D3D2042414E21
:10209000443D3D3D3D3D3D3D3D3D200D0A202573E8
:1020A000200D0A0041542B43494D490D0A00000000
:1020B0004552524F52000000CED2B5C4BFA8BAC597
:1020C000CAC7203A202573200D0A0000BFA8B4ED2E
:1020D000CEF3203A202573200D0A000041542B43F3
:1020E000474154543D310D0A00000000696E697487
:1020F00020504450204F4B0D0A00000041542B4308
:10210000474154543F0D0A002B43474154543A3140
:102110000000000041542B4353510D0A0000000001
:102120002B43535100000000D0C5BAC5D6CAC1BF69
:102130003A25730D0A00000041542B434552454790
:102140003F0D0A002B43455245473A302C310000E1
:102150002B43455245473A312C31000058000020AE
:1021600010B51CA11E48FEF753FA1E490860084628
:10217000006800282DD008460068007A1A49487087
:10218000002400BF1748016804F10A00085C0D280C
:1021900000D10AE01348016804F10A00095C124802
:1021A000801C0155601CC4B2ECE700BF4FF4807185
:1021B0000E48FEF73FFA0C484278831C0CA10B48EE
:1021C000FEF776F8094800F093FD4FF4967000F0A2
:1021D00093FE10BD2B4E534F4E4D493A0000000068
:1021E000D403002054000020DC050020DC04002083
:1021F00041542B4E534F52463D25632C25730D0AF7
:1022000000000000F8B504460D4600264FF480712A
:102210001648FEF70FFA23461548009515A10268E7
:102220001248FEF745F8114917A0FEF735F80F4898
:1022300000F05EFD40F2DC5000F05EFE13A1144899
:10224000FEF7E6F9134908600AE0761C0FA1104872
:10225000FEF7DEF90F490860642E01DD002603E079
:102260000C4800680028F0D000BFF8BDDC04002056
:102270006000002041542B4E534F53443D25642CA5
:1022800025732C25730D0A00257300004F4B0000A9
:10229000D40300205400002000BFFEE710B508481A
:1022A000FDF7EEFF4FF4967000F026FE0020044983
:1022B000C1F804014FF480710148FEF7DDF910BD4B
:1022C000D4030020704710B5012000F047F870B12A
:1022D00000F05AFB032000F00FFE4FF4165002F0FE
:1022E0000BF8032000F008FE012000F031F810BDCB
:1022F00010B5022000F032F820B300F045FB0320B7
:1023000000F0FAFD4FF4E13001F08CFF4FF416506D
:1023100001F0F2FF032000F0EFFD01210A4800F078
:1023200039FA022000F0E8FD002000F09FFE0320B3
:1023300000F0E2FD122000F00FFD044908700220B9
:1023400000F006F810BD00000030014043000020FE
:102350000149086070470000140401400146002054
:10236000034A12680A400AB1012000E000207047C9
:1023700014040140002123498279002A3AD00A46F8
:10238000126803689A430B461A600A1D12680368B4
:102390009A430B1D1A60027911440A6803681A43B4
:1023A0000A60184A0832126803689A43154B0833CA
:1023B0001A601A1D126803689A43124B0C331A6094
:1023C0004279102A0ED11A1F126803681A430D4B66
:1023D00008331A601A1D126803681A43094B0C333C
:1023E0001A600DE00749427911440A6803681A43EC
:1023F0000A6005E0027911440A6803689A430A609A
:102400007047000000040140F0B502460B46002171
:1024100000240025002000BF35E0012606FA01F463
:102420001E6806EA0405A5422CD110684F00032659
:10243000BE40B0431E794F00BE40304310601E794D
:10244000012E02D01E79022E12D190684F00032671
:10245000BE40B0435E794F00BE40304390609088EC
:1024600001268E40B0439E798E40B6B230439080B4
:10247000D0684F000326BE40B043DE794F00BE4017
:102480003043D060491C1029C7D3F0BDF0B50023FC
:1024900000244D07ED0E02FA05F3CE1000F12005E1
:1024A00055F826504E07F70E0F26BE40B543CF1005
:1024B00000F1200646F82750CE1000F1200555F80F
:1024C000265045EA0304CE1000F1200545F82640C9
:1024D000F0BD4183704700BFFEE700BFFEE77047D5
:1024E00070B5002100230F22C4781CB3174C246858
:1024F00004F4E064C4F5E064C4F30721C1F104040A
:10250000E3B20A4144789C40E1B28478144021430C
:102510000C07210E0E4C05786155047804F01F0558
:102520000124AC4005786D11AD0005F1E025C5F83A
:10253000004109E0047804F01F050124AC40054D7A
:102540000678761145F8264070BD00000CED00E0DD
:1025500000E400E080E100E002490143024A11602A
:10256000704700000000FA050CED00E010B50246CF
:1025700000200C4B186820F00300104318600A4B31
:102580001B6843F00403084C2360012901D130BFCC
:1025900000E020BF044B1B6823F00403024C2360BF
:1025A00010BD00000070004010ED00E001494862DD
:1025B0007047000000000E427047000029B1064A33
:1025C00012680243044B1A6004E0034A1268824313
:1025D000014B1A60704700001C38024029B1064ABE
:1025E00012680243044B1A6004E0034A12688243F3
:1025F000014B1A60704700002438024029B1064A96
:1026000012680243044B1A6004E0034A12688243D2
:10261000014B1A60704700001838024029B1064A81
:1026200012680243044B1A6004E0034A12688243B2
:10263000014B1A60704700002038024029B1064A59
:1026400012680243044B1A6004E0034A1268824392
:10265000014B1A607047000014380240F0B50021A9
:1026600000220023002600240025374F3F6807F092
:102670000C0131B1042912D0082913D00C2934D10E
:1026800013E0314F3F1F3F68C7F342356F1C4FF0D7
:10269000010C0CFA07FC4FEACC37076033E02B4FF4
:1026A000076030E02A4F07602DE0274F3F6807F4AE
:1026B0007012254F3F6807F44003264F07EB9247FF
:1026C0003A78012707EB93531F4F3F6807F4803692
:1026D0002EB91E4F5743B7FBF3F7076004E01C4FBA
:1026E0005743B7FBF3F707600DE0174F3F1F3F68F5
:1026F000C7F342356F1C4FF0010C0CFA07FC4FEA90
:10270000CC37076000BF00BF0F4F3F6807F0F001F4
:102710000909114F7C5C0768E74047600A4F3F6832
:1027200007F4E061090A0C4F7C5C4768E74087606A
:10273000054F3F6807F46051C90A074F7C5C476842
:10274000E740C760F0BD0000083802400024F400F4
:1027500000127A00640000206D000020024800682A
:1027600000F00C00704700000838024010B5044625
:10277000074800884FF6C771084005490880084699
:102780000088204308800121014800F003F810BDB3
:102790000030014021B1028842F04002028004E092
:1027A00002884FF6BF731A4002807047CA43028105
:1027B00070470246002013890B400BB1012000E056
:1027C000002070470146888970478181704710B5A5
:1027D0000022028802F441520B884C8823438C88E3
:1027E0002343CC8823430C8923434C8923438C897E
:1027F0002343CC8923431A430280838B4FF2FF7417
:10280000234083830B8A038210BD704730B50022BA
:102810008B071C0F0F2303FA04F20B4B8C1053F899
:1028200024309343084C8D1044F8253023468C10F7
:1028300053F824308C07240F00FA04F42343024C8D
:102840008D1044F8253030BD080001400CB5002043
:10285000019000903E48006840F480303C49086098
:1028600000BF3B48006800F4003000900198401C15
:102870000190009818B90198B0F5A04FF1D13448F3
:10288000006800F4003010B10120009001E0002049
:1028900000900098012859D12E48006840F00400AB
:1028A0002C4908600846006840F0020008600846AD
:1028B000006840F00100086025482430006840F0BE
:1028C0008050234924310860C8142349086000BFA0
:1028D0002148406800F010000028F9D11C48083059
:1028E00000681B490831086008460068086008460F
:1028F000006808600846006820F47D00086008460B
:10290000006840F4110008601148006840F08070D1
:102910000F49086000BF0E48006800F000700028F2
:10292000F9D00B480830006820F00300084908314E
:1029300008600846006840F00300086000BF0448D3
:102940000830006800F00C000C28F8D10CBD000025
:1029500000380240003C024000700040042808D1CA
:102960004FF0E021096941F004014FF0E0221161CC
:1029700007E04FF0E021096921F004014FF0E02267
:10298000116170477047000010B51548006840F4A9
:1029900080701349086012480830006811490840E7
:1029A0000F49083108600E4800680F4908400C497B
:1029B00008600846006820F4802008600848083055
:1029C000006820F47D000649083108600020091DD8
:1029D0000860FFF73BFF4FF000600449086010BD3E
:1029E000003802400CC0FF88FEFFFEEE08ED00E05C
:1029F00010B540F225510A4800F0BFF878B10848F8
:102A0000001D0088C1B2074802880088401C054BA1
:102A10001880054881542021014800F02FF810BD8E
:102A20000038014040000020A003002010B540F213
:102A30002551114800F0A1F801280BD10E4800F0F3
:102A400051F9C4B2204601F015F940F225510A4867
:102A500000F01DF80821084800F082F801280AD18A
:102A6000054800F03FF9C4B2204601F003F90821FF
:102A7000014800F003F810BD0044004001F400726A
:102A8000B2F5007F00D100BFCA430280704710B585
:102A90000022002340F66A14A14200D100BF0A12AE
:102AA00001249440A3B2DC43048010BD21B182898B
:102AB00042F40052828104E082894DF6FF731A408D
:102AC0008281704710B504462048844209D1012113
:102AD0008803FFF7B3FD00214FF48040FFF7AEFD00
:102AE00032E01B48844209D101214804FFF786FDEA
:102AF00000214FF40030FFF781FD25E015488442A6
:102B000009D101218804FFF779FD00214FF48020CD
:102B1000FFF774FD18E01048844209D10121C80470
:102B2000FFF76CFD00214FF40020FFF767FD0BE07D
:102B30000A48844208D101210805FFF75FFD002102
:102B40004FF48010FFF75AFD10BD0000003801401F
:102B50000044004000480040004C0040005000404D
:102B600002460020B1F5007F00D100BF13880B4062
:102B70000BB1012000E00020704770B50246002430
:102B800000230025002040F66A16B14200D100BFA4
:102B9000C1F3421501F01F03012606FA03F3012DCC
:102BA00002D19689334006E0022D02D1168A3340C5
:102BB00001E0968A33400C12012606FA04F41688C6
:102BC000344013B10CB1012000E0002070BDF0B51D
:102BD0000346002400260025002040F66A17B9426B
:102BE00000D100BF1846C1F3421401F01F060127AF
:102BF00007FA06F5012C01D10C3004E0022C01D1BA
:102C0000103000E014301AB107682F43076002E06B
:102C10000768AF430760F0BD2DE9FF4705460E4644
:102C20000024A14600BFA046B08900B100BF2C8A95
:102C300024F44054F08804432C82AC8941F20C60A7
:102C40008443B08831890843718908430443AC81C7
:102C5000AC8A24F44074B0890443AC826846FFF720
:102C6000FDFC1F48854202D1DDF80C9001E0DDF843
:102C70000890A88900F4004040B109EBC90000EBBE
:102C8000091031684900B0FBF1F707E009EBC90012
:102C900000EB091031688900B0FBF1F76420B7FB45
:102CA000F0F004012009642101FB1078A88900F4E8
:102CB000004040B1322000EBC800B0FBF1F000F062
:102CC0000700044308E0322000EB08106421B0FB49
:102CD000F1F000F00F0004432C81BDE8FF870000F5
:102CE0000038014001468888C0F3080070470000A2
:102CF0000BE000BF0749098801F040010029F9D025
:102D00000178044A121D1180401C01780029F0D17D
:102D1000704700000044004000BFFEE7490050EA51
:102D2000C12018BF04204A0D18BF40F0010040F236
:102D3000FF72B2EB515F08BF40F00200012808BFEC
:102D40000520704730380A2801D201207047002042
:102D50007047014600BF704710B5044604F180007B
:102D6000C1B20F2001F0D8F80F2001F09DF810BD7E
:102D700070B504460D4604F14000C1B20F2001F0C9
:102D8000CBF805F1C000C1B20F2001F0C5F8012059
:102D900070BD000010B500F08DF84FF4A060FFF793
:102DA000DBFB4FF4E13001F03DFA0A2000F0A4F81B
:102DB0004FF4165001F0A0FA0A2000F09DF801F03F
:102DC000E1F800F0E5F80820FFF7D0FC0A2000F059
:102DD00093F800F063F90A2000F08EF8FFF7BEFCCC
:102DE0000446214604A0FDF757FA0648016806A0EC
:102DF000FDF752FA10BD0000636C6B3D2530327850
:102E00000D0A000008380240435247523D307825F1
:102E10003038780D0A00000070B504460221012008
:102E2000FFF7A6FF04210120FFF7A2FF22210120C6
:102E3000FFF79EFF24210120FFF79AFF042001F0F5
:102E4000C5FA054604210120FFF792FF204600F055
:102E5000BEFF012070BD2DE9F04105460C46284615
:102E600001F022F820EA04073946284601F054F818
:102E700006463046BDE8F0812DE9F04105460C4696
:102E80002846FFF769FF20EA040739462846FFF77E
:102E90006FFF06463046BDE8F08110B580210A205C
:102EA00000F0B2FF0A2000F0FFFF08B9012010BDBA
:102EB0000020FCE710B56FF00400FFF74FFD0A4853
:102EC00000680A49B0FBF1F009490870084600782B
:102ED00000EB4001C1EBC0104FF6FF7101EAC000EA
:102EE0000449088010BD00000000002000127A0094
:102EF00034000020360000200146114A12884A435F
:102F00004FF0E0235A6100229A611A46126942F09A
:102F100001021A6100BF4FF0E022106900F00102C7
:102F20001AB100F48032002AF5D04FF0E022126985
:102F300022F001024FF0E0231A6100229A617047EB
:102F4000360000200146114A12784A434FF0E02330
:102F50005A6100229A611A46126942F001021A610E
:102F600000BF4FF0E022106900F001021AB100F436
:102F70008032002AF5D04FF0E022126922F00102DF
:102F80004FF0E0231A6100229A617047340000205C
:102F900000B585B001210846FFF710FB0220039021
:102FA00000208DF8100001208DF8130003A92E4891
:102FB000FFF72AFA01210846FFF730FB0121002024
:102FC000FFF724FC0220019000208DF808000C205F
:102FD0008DF8090001208DF80A0001A8FFF7CAF951
:102FE00007208DF8000000208DF8010001208DF8E9
:102FF00002008DF803006846FFF772FA01210220F3
:10300000FFF7DCFA0120039000208DF810008DF806
:10301000130003A91448FFF7F7F901210846FFF749
:10302000FDFA00210120FFF7F1FB012001900020B3
:103030008DF8080008208DF8090001208DF80A009D
:1030400001A8FFF797F906208DF8000000208DF801
:10305000010002208DF8020001208DF8030068466F
:10306000FFF73EFA05B000BD0000024010B504466F
:103070003CB90120084908601420FFF763FF0020D5
:1030800010BD012C05D10020034908601420FFF772
:1030900059FF0120F4E700008002404210B50020F3
:1030A000064908606420FFF74DFF01200449C1F87C
:1030B00080026420FFF746FF012010BD80024042DD
:1030C000000040420146012904D10020044A10605A
:1030D000012070470120024A10600020F9E700003B
:1030E0008002404200BF054A128802F04002002AD6
:1030F000F9D0C2B2014B1B1D1A8070470038014045
:103100002DE9F05F06468A4617461D46DDF828B0D1
:103110004FF000080024A146FFF7BFFE00210D205C
:1031200000F0FAFE0021012000F0F6FE20210B2025
:1031300000F0F2FE7F21042000F0EEFE3146012077
:1031400000F0EAFE0C2E37D15146384600F0EEFF73
:1031500080210D2000F058FE0421084600F0DCFE1E
:103160000CE009F10109B9F5005F07D14FF0000942
:1031700014A0FDF791F80020BDE8F09F042000F0B6
:1031800093FE00F020002028EBD10A2000F08CFEF6
:1031900080462946404600F073FF002408E0285D81
:1031A0000A490855295D0AA0FDF776F8601CC4B2EB
:1031B0004445F4DB4FF0000803A0FDF76DF8012053
:1031C000DAE700003838380D0A000000200000203F
:1031D00025303278202000001CB501210846FFF779
:1031E000EDF901210220FFF7E9F901210420FFF7A1
:1031F000E5F94FF6FF70009003208DF804000020E1
:103200008DF8070069463848FFF7FEF869463748E9
:10321000FFF7FAF8FFF74EFE4FF4A060FFF79CF9B6
:103220004FF4E13000F0FEFF00F0ACFEFFF7B0FE1F
:103230001020FFF79BFA1420FFF75EFE4FF60C10EC
:10324000009003208DF8040000208DF807006946E7
:103250002748FFF7D9F8012000908DF804000020DE
:103260008DF806008DF8070003208DF805006946EB
:103270001F48FFF7C9F801211D48FFF72AF94FF44D
:10328000C060009001208DF8040000208DF8060039
:103290008DF8070003208DF8050069461448FFF7F4
:1032A000B3F801211248FFF714F900211148FFF784
:1032B00071FA1148FFF706FC00210F48FFF7F6FBF3
:1032C00000210220FFF77AF900210420FFF776F9A8
:1032D0000220FFF73DF80120FFF768F901210846B9
:1032E000FFF744F91CBD0000000402400008024042
:1032F00000000240003001400038014008B51420B1
:10330000FFF7FAFD00F070FA00F0F2FA684600F0FC
:1033100073F89DF80000012802D1FFF7A7FE02E034
:1033200001A0FCF7B9FF08BD43616C696272616678
:103330006C6167206661696C202A2A2A0D0A0000E8
:1033400008B500F051FA00F0D3FA684600F054F8DE
:103350009DF80000012803D10CA0FCF79DFF02E0BE
:1033600010A0FCF799FF20210320FFF701FD0128A1
:103370000AD1FFF7A7FE012803D10EA0FCF78CFFAE
:1033800002E016A0FCF788FF08BD000043616C69ED
:103390006272616720737563636573730D0A0D0A4A
:1033A0000000000043616C696272616720666169B8
:1033B0006C0D0A00323032302D322D3131456E74B1
:1033C0006572204C504344206D6F646520537563D3
:1033D0006365737321210D0A00000000456E74655A
:1033E00072204C504344206D6F6465204661696CC7
:1033F00021210D0A00000000F8B50446C1480078FC
:10340000C14A127800EB8200C1B20420FFF7B0FC81
:10341000BE4800780020BE4A127802EB600000F03F
:1034200007010520FFF7A4FC01211C20FFF7A0FCE9
:10343000B8480078B84A127800EB0210C1B20720F1
:10344000FFF796FCB54801780820FFF791FCB448D7
:1034500001780920FFF78CFC0020AC490870084671
:1034600000780020AA4A127802EB600000F0070101
:103470000520FFF77DFCA548007800F03F010620FD
:10348000FFF776FC6846FFF7C7FC07469DF800107B
:10349000A4A0FCF701FF01269DF80000A5490978CA
:1034A000884223DA00261FE09648007808B90026F3
:1034B0001BE094480078401E924908700846007846
:1034C000914A127800EB8200C1B20420FFF750FC51
:1034D0006846FFF7A1FC07469DF80000954909786A
:1034E000884201DD012600E0DEE754E07F208749C5
:1034F0000870084600780020854A127802EB4010D8
:1035000000F007010520FFF733FC8048007800F049
:103510003F010620FFF72CFC6846FFF77DFC0746BD
:103520009DF8001084A0FCF7B7FE01269DF800006E
:103530008049097888422EDD00262AE0724800780A
:10354000072801D1002625E06F480078401C6E490D
:1035500008706C4800780A46127800EB8200C1B20D
:103560000420FFF705FC6846FFF756FC074666484F
:10357000017875A0FCF790FE9DF8001076A0FCF78E
:103580008BFE9DF800006B490978884201DA01261C
:1035900000E0D3E700BF26B9002020709DF80000AE
:1035A000F8BD002020709DF800506FA0FCF774FE5D
:1035B00000205649087090E0544801786CA0FCF750
:1035C0006BFE524800780020514A127802EB4010FE
:1035D00000F007010520FFF7CBFB4C48007800F016
:1035E0003F010620FFF7C4FB9DF800506846FFF737
:1035F00013FC07469DF800004E490978884267DAB7
:10360000012020704B4800789DF80010401A49496D
:103610000978691A884204DA9DF800004549087063
:1036200019E04448057039480078401E3749087051
:10363000084600780020364A127802EB401000F06D
:1036400007010520FFF794FB3048007800F03F01A8
:103650000620FFF78DFB3748007849490978084470
:10366000484908703348007845490978401A464966
:1036700008703048017845A0FCF70EFE40480178FC
:1036800048A0FCF709FE3F4801784DA0FCF704FE76
:103690003D4801784EA0FCF7FFFD3B48007800F064
:1036A0003F010E20FFF764FB3748007881110F209F
:1036B000FFF75EFB3348007800F03F011020FFF772
:1036C00057FB3048007881111120FFF751FB09E0CA
:1036D0000E480078401C0D4908700C4800787F287F
:1036E000FFF66AAF00BF3EA0FCF7D6FD01211C200B
:1036F000FFF7C2FB26B9002020709DF800004FE7BD
:1037000001204DE74600002047000020480000202F
:103710004500002049000020440000204A0000200D
:103720004B000020312D2D6164633D253032780D32
:103730000A00000050000020322D2D6164633D25F9
:103740003032780D0A000000416D706C6966793D79
:10375000253032780D0A0000332D2D6164633D253C
:103760003032780D0A0000003131310D0A000000BE
:1037700061646372663D253032780D0A00000000F6
:103780004D0000204F0000204E00002041444352D5
:103790006573756C7443656E7465723D253032785F
:1037A0000D0A0000414443526573756C745468728D
:1037B0006573686F6C643D253032780D0A00000037
:1037C0006C706364483D253032780D0A00000000BB
:1037D0006C7063644C3D253032780D0A00000000A7
:1037E0003232320D0A0000000020344908700320F4
:1037F00033490870002033490870334908700320AA
:10380000324908700D20324908700B203149087088
:10381000084600780F2814DD02202F4908702D4833
:103820000078401EC006000E2C490870084600783B
:1038300040102B4908702948007800112949087068
:103840002CE024480078072814DD01202249087064
:1038500020480078401E0007000E204908700846E6
:10386000007840101E4908701C48007800111D495E
:10387000087013E000201849087016480078401EB0
:103880004007000E1549087008460078401014499A
:10389000087012480078001112490870104800782A
:1038A000104909780844104908700D4800780D49FE
:1038B0000978401A0D490870012070474500002022
:1038C000460000204700002048000020490000205A
:1038D0004A0000204B000020440000204C00002043
:1038E000500000204D0000204F0000204E0000201E
:1038F00010B58021022000F00FFB0021032000F012
:103900000BFB02210120FFF733FA22210120FFF7F0
:103910002FFA21210120FFF72BFA30210120FFF798
:1039200027FA28210120FFF723FA1B210220FFF7A5
:103930001FFA00210320FFF71BFA1E4800781E4AD9
:10394000127800EB0210C1B20720FFF711FA1B48F2
:1039500001780820FFF70CFA194801780920FFF7D1
:1039600007FA08210A20FFF703FA0A210B20FFF7C4
:10397000FFF91448007800F03F010E20FFF7F8F936
:103980001048007881110F20FFF7F2F90E480078F7
:1039900000F03F011020FFF7EBF90B480078811190
:1039A0001120FFF7E5F90A210B20FFF7E1F90120CB
:1039B00010BD000049000020440000204A00002003
:1039C0004B0000204E0000204F00002000BFFFF7FA
:1039D000E1F9FEF7F5F94FF49670FFF78DFAFFF76E
:1039E000AFFCFEF75BFCFFF7F7FBBFE0FFF762FA07
:1039F0004FF4A060FEF7B0FD4FF4E13000F012FC90
:103A00000A20FFF779FA4FF4165000F075FC0A20EF
:103A1000FFF772FA5648017856A0FCF73DFC0221E8
:103A20000120FFF7A5F922210120FFF7A1F9504855
:103A3000007800F00100002879D000204C4908707F
:103A400000F0AEFB4FF49670FFF756FA4C48007842
:103A5000002862D06420FFF74FFAFEF71FFCFEF744
:103A6000D5F848A14DA0FEF7CDFBFEF779FB00206D
:103A70004B490860FEF712FCFEF772FBFEF70EFCE6
:103A800048A146A0FEF7BEFB40E04FF49670FFF75A
:103A900033FA43480068401C41490860FEF760FB68
:103AA00046A14A48FCF7B4FD494908600846006849
:103AB00000281DD047A0FCF7EFFB46A0FCF7ECFB6D
:103AC00001205149086043A0FCF7E6FB41A0FCF748
:103AD000E3FB4E48D0F88002012808D14C49086029
:103AE0004FF4FA60FFF708FA00204749086011E038
:103AF0002B4800680A2803DD00202949086009E0F6
:103B000044A0FCF7C9FB3220FFF7F6F940480068F3
:103B10000028BAD000BFFEF7C1FB00203C49086076
:103B20004948FCF7B9FBFFF70BFC11E0FFE7104831
:103B3000007800F0100010280AD100200C4908700D
:103B4000FFF7DCFB0A20FFF7D7F940A0FCF7A4FB46
:103B500040A0FFF7CDF843A0FFF7CAF84FF49670E6
:103B6000FFF7CAF9FEF79AFBFFF736FB3EE70000C6
:103B7000430000206972713D253032780D0A000043
:103B80002000002037423031303030423330333083
:103B900033303330333033313742000031310000BD
:103BA0002C00002037423036303030423330333052
:103BB0003330333033303331374200003742383618
:103BC000303031313331374200000000D40300205F
:103BD000280000202A2A2A2A2A2A2A2A2A2A2A2AA5
:103BE0002A2A2A2A2A2A2A2A6765746765742A2AB1
:103BF0002A2A2A2A2A2A2A2A2A2A2A2A2A2A2A2A25
:103C00002A2A2A2A0D0A000080824042008040426F
:103C1000300000202A2A2A2A2A2A2A2A2A2A2A2A5C
:103C20002A4E4F4E4F4E4F4E4F4E4F4E4F4E4F4ED1
:103C30004F4E4F4E4F4E4F2A2A2A2A2A2A2A2A2AE4
:103C40002A2A2A0D0A0000007845000836360D0A97
:103C50000000000041542B4E534F434C3D310D0AA0
:103C60000000000041542B4E534F434C3D320D0A8F
:103C7000000000000A49D1F80411FF2904D90021ED
:103C8000074AC2F804110AE00549D1F80421D1F825
:103C90000411491C024BC3F804111946885470479B
:103CA000D40300202DE9F84F04460F461546DDF8F1
:103CB00028804FF00009CA460026B3460020009035
:103CC0000021012000F028F907210D2000F024F93F
:103CD00020210B2000F020F97F21042000F01CF9A6
:103CE0002146012000F018F90C2C20D13946284635
:103CF00000F01CFA80210D2000F086F80AE0761C06
:103D0000B6F5405F06D100260AA0FCF7C5FA0020F0
:103D1000BDE8F88F042000F0C7F800F0200020284C
:103D2000EDD10A2000F0C0F881464FF000090120D3
:103D3000EEE700003636360D0A00000070B5044686
:103D40004CBB0C2000F0B0F840F0100529460C20C8
:103D500000F0E2F8152000F0A7F840F040052946F1
:103D6000152000F0D9F80021122000F0D5F800212C
:103D7000132000F0D1F87F21262000F0CDF8FF219C
:103D8000272000F0C9F83F21282000F0C5F83F2186
:103D9000292000F0C1F8012C17D110210C2000F0CF
:103DA000BBF88321122000F0B7F88321132000F024
:103DB000B3F8F421272000F0AFF8F421232000F01D
:103DC000ABF80021152000F0A7F8012070BD70B5F8
:103DD0000446002020700D20FEF7BEFF0546A80710
:103DE000060E0C20FEF7B8FF054605F03F003044F4
:103DF000C6B2267002210120FEF7BAFF222101205F
:103E0000FEF7B6FF012070BD2DE9F04105460C46D6
:103E10000026284600F048F840EA040739462846BC
:103E200000F07AF806463046BDE8F08170B50446E9
:103E30000025142000F038F800F00300A04201D162
:103E4000012070BD4CB9142000F02EF820F00306BC
:103E50003146142000F060F80546012C09D11420E9
:103E600000F022F820F001063146142000F054F84A
:103E70000546022C09D1142000F016F820F00206A5
:103E80003146142000F048F80546032C09D11420CF
:103E900000F00AF840F003063146142000F03CF828
:103EA00005462846CDE7000070B504460025802071
:103EB00040EA4400C4B20020154908602146154874
:103EC000FEF783FC00BF01211248FEF772FC0028B8
:103ED000F9D001210F48FEF769FC0E48FEF772FC8D
:103EE00000210C48FEF771FC00BF01210948FEF7D4
:103EF00060FC0028F9D001210648FEF757FC054870
:103F0000FEF760FCC5B2012001490860284670BD7B
:103F1000900240420030014070B504460D467E20BC
:103F200000EA440400201549086021461448FEF7C1
:103F30004CFC00BF01211248FEF73BFC0028F9D0E1
:103F400001210F48FEF732FC0D48FEF73BFC2946E5
:103F50000B48FEF73AFC00BF01210948FEF729FC97
:103F60000028F9D001210648FEF720FC0448FEF79E
:103F700029FC01200149086070BD00009002404208
:103F80000030014000B587B001210846FEF716FB5E
:103F900001210803FEF742FB052204213548FEF704
:103FA00075FA052211463348FEF770FA05220621FC
:103FB0003048FEF76BFA052207212E48FEF766FA15
:103FC00002208DF80400E020009000208DF806000B
:103FD00001208DF8070003208DF80500694625486B
:103FE000FEF712FA01208DF8040010200090002046
:103FF0008DF806008DF8070003208DF8050069464E
:104000001C48FEF701FA01201B4908608DF80400E6
:10401000009000208DF806008DF8070003208DF831
:10402000050069461348FEF7EFF90020ADF80800D7
:104030004FF48270ADF80A000020ADF80C00ADF826
:104040000E00ADF810004FF40070ADF812003820EB
:10405000ADF814000020ADF816000720ADF81800E8
:1040600002A90648FEF7B3FB01210448FEF792FBC4
:1040700007B000BD00000240900240420030014005
:104080002DE9F04106460D46002400270020254971
:10409000086092212448FEF798FB00BF01212248C6
:1040A000FEF787FB0028F9D001211F48FEF77EFBB1
:1040B0001D48FEF787FBC7B201211B48FEF776FBC0
:1040C000002414E092211848FEF77FFB00BF012175
:1040D0001548FEF76EFB0028F9D001211248FEF7C3
:1040E00065FB1148FEF76EFB2855601CC4B2701EBC
:1040F000A042E7DC00210C48FEF767FB00BF01216E
:104100000948FEF756FB0028F9D001210648FEF7C2
:104110004DFB0548FEF756FB285501200149086074
:10412000BDE8F08190024042003001402DE9F041AD
:1041300005460E460024002700201749086012217A
:104140001648FEF742FB00BF01211448FEF731FB81
:104150000028F9D001211148FEF728FB0F48FEF78F
:1041600031FB002411E0375D39460C48FEF72DFB8A
:1041700000BF01210948FEF71CFB0028F9D00748C1
:10418000FEF720FBC7B2601CC4B2AC42EBDB0120DF
:1041900001490860BDE8F0819002404200300140D2
:1041A00010B58AB00024002003900290FFF7C6FDEE
:1041B00080211220FEF74FFE80211320FEF74BFED8
:1041C00008211320FFF720FE08210846FEF743FED2
:1041D0000320FFF72BFE3220FEF78EFE52208DF8D3
:1041E0001C0003A804AB012207A900900C20FFF7D4
:1041F00059FD0446012C13D1FEF74FFE93208DF894
:10420000080020208DF8090080210E20FEF723FEF3
:1042100003A804AB022202A900900C20FEF770FF55
:104220000AB010BD10B588B0044601210846FEF75B
:10423000C5F901218803FEF7F1F9072209212C486D
:10424000FEF724F907220A212948FEF71FF94FF447
:104250000070069002208DF81C0000208DF81E00D2
:104260008DF81F0003208DF81D0006A92048FEF7D9
:10427000CBF84FF48060069002208DF81C000120DE
:104280008DF81E0000208DF81F0003208DF81D0002
:1042900006A91748FEF7B8F825208DF8040003207A
:1042A0008DF805008DF8060001208DF8070001A8A3
:1042B000FEF716F902940020ADF80C00ADF80E00E0
:1042C000ADF81000ADF814000C20ADF8120002A9F2
:1042D0000848FEF7A1FC012240F225510548FEF7EF
:1042E00076FC01210348FEF7E1FB08B010BD000099
:1042F000000002400038014010B588B0044601219A
:104300000846FEF75BF901214804FEF767F907222A
:1043100002212C48FEF7BAF8072203212948FEF7AC
:10432000B5F80420069002208DF81C0003208DF8BB
:104330001D0000208DF81E0006A92248FEF764F833
:104340000820069003208DF81D0002208DF81C0027
:1043500001208DF81F0006A91A48FEF755F82620FF
:104360008DF8040003208DF8050002208DF806006A
:1043700001208DF8070001A8FEF7B2F80294002092
:10438000ADF80C00ADF80E00ADF81000ADF814005B
:104390000C20ADF8120002A90B48FEF73DFC0122EB
:1043A00040F225510848FEF712FC01210648FEF7AD
:1043B0007DFB012240F225510348FEF708FC08B0BE
:1043C00010BD0000000002400044004070B50446EB
:1043D00000261220FEF7C0FC05460CE01220FEF776
:1043E000BBFC05460120FEF787FD701CC6B2092EF6
:1043F00001DD002070BD05EA0400A042EED129468F
:1044000002A0FBF749FF0120F4E700006574643D5A
:10441000253032780D0A000010B500290AD008783E
:10442000002807D005487844FCF7E8FF002801D0B1
:10443000002010BD0248784410BD0000CA010000F1
:10444000C201000010B500290AD00878002807D062
:1044500005487844FCF7D2FF002801D0002010BDA9
:104460000248784410BD0000BA010000B20100000B
:10447000FCF7E4BBFCF718BD303132333435363746
:104480003839414243444546403058003031323398
:104490003435363738396162636465664030780098
:1044A00004000008000000000000000200010000FD
:1044B0001000000000000000000000003031323326
:1044C0003435363738396162636465667870003038
:1044D0003132333435363738394142434445465812
:1044E0005000000002400000000000A0000000009A
:1044F00005400000000000C8000000000C40000063
:104500000000409C00000000194000000020BCBEDC
:104510000000000034400000BFC91B8E00000004F2
:10452000B5400000504BCFD06607E2CF010000003D
:104530006C4100003E8251AADFEEA734010000006A
:10454000D9420000DCB5A0E23A301F97FFFFFFFF21
:10455000B4450000FD25A0C8E9A3C14FFFFFFFFF40
:10456000FF3F00000000008000000000FF3F00004F
:1045700000000080000000002A2A2A2A2A2A2A2A6B
:104580002A2A2A2A2A2A2A2A2A2A2A2A2A2A2A2A8B
:104590002A2A2A2A2A2A2A2A2A2A2A2A2A2A2A2A7B
:1045A0002A2A2A2A2A2A2A2A2A2A2A2A2A2A2A2A6B
:1045B0002A2A2A2A2A2A2A2A2A2A2A2A2A2A2A2A5B
:1045C0002A2A2A2A2A2A2A2A2A2A2A2A2A2A00009F
:1045D0001C47000800000020800000003001000897
:1045E0009C47000880000020380C00004C010008A7
:1045F0001C00000043000000F8FFFFFF0C0000005B
:104600000E0000000F0000002E000000100100004E
:1046100043000000F8FFFFFF0040404040404040A2
:104620004040414141414140404040404040404085
:104630004040404040404040400502020202020229
:104640000202020202020202022020202020202078
:10465000202020020202020202029090909090908C
:10466000101010101010101010101010101010104A
:1046700010101010020202020202888888888888BE
:1046800008080808080808080808080808080808AA
:1046900008080808020202024000000000000000B2
:1046A000000000000000000000000000000000000A
:1046B00000000000000000000000000000000000FA
:1046C00000000000000000000000000000000000EA
:1046D00000000000000000000000000000000000DA
:1046E00000000000000000000000000000000000CA
:1046F00000000000000000000000000000000000BA
:1047000000000000000000000000000000000000A9
:104710000000000000000000000000000048E80168
:10472000030406080C1018203000000000000000F0
:104730000001020304060708090000000000000051
:104740000000000000000000000000000000000069
:104750000000000000000000000000000000000059
:104760000000000000000000000000000000000049
:104770000000000000000000000000000100000038
:10478000030406080C10182030000000000102038A
:0C479000040102030406070809000000F1
:04000005080000F5FA
:00000001FF
